{
  "contractName": "EthDonation",
  "abi": [
    {
      "inputs": [],
      "stateMutability": "payable",
      "type": "constructor",
      "payable": true
    },
    {
      "anonymous": false,
      "inputs": [
        {
          "indexed": false,
          "internalType": "address",
          "name": "donatorAddress",
          "type": "address"
        },
        {
          "indexed": false,
          "internalType": "uint256",
          "name": "amount",
          "type": "uint256"
        },
        {
          "indexed": false,
          "internalType": "uint256",
          "name": "projectId",
          "type": "uint256"
        }
      ],
      "name": "LogDonationMade",
      "type": "event"
    },
    {
      "anonymous": false,
      "inputs": [
        {
          "indexed": false,
          "internalType": "uint256",
          "name": "projectId",
          "type": "uint256"
        },
        {
          "indexed": false,
          "internalType": "uint256",
          "name": "expenseId",
          "type": "uint256"
        },
        {
          "indexed": false,
          "internalType": "uint256",
          "name": "allocation",
          "type": "uint256"
        }
      ],
      "name": "LogExpenseAllocated",
      "type": "event"
    },
    {
      "anonymous": false,
      "inputs": [
        {
          "indexed": false,
          "internalType": "uint256",
          "name": "projectId",
          "type": "uint256"
        },
        {
          "indexed": false,
          "internalType": "uint256",
          "name": "expenseId",
          "type": "uint256"
        },
        {
          "indexed": false,
          "internalType": "uint256",
          "name": "allocation",
          "type": "uint256"
        }
      ],
      "name": "LogExpenseAllocationFailure",
      "type": "event"
    },
    {
      "anonymous": false,
      "inputs": [
        {
          "indexed": false,
          "internalType": "uint256",
          "name": "projectId",
          "type": "uint256"
        },
        {
          "indexed": false,
          "internalType": "uint256",
          "name": "expenseId",
          "type": "uint256"
        },
        {
          "indexed": false,
          "internalType": "address",
          "name": "approver",
          "type": "address"
        }
      ],
      "name": "LogExpenseApproved",
      "type": "event"
    },
    {
      "anonymous": false,
      "inputs": [
        {
          "indexed": false,
          "internalType": "uint256",
          "name": "projectId",
          "type": "uint256"
        },
        {
          "indexed": false,
          "internalType": "address",
          "name": "donator",
          "type": "address"
        },
        {
          "indexed": false,
          "internalType": "uint256",
          "name": "amount",
          "type": "uint256"
        }
      ],
      "name": "LogRefund",
      "type": "event"
    },
    {
      "anonymous": false,
      "inputs": [
        {
          "indexed": false,
          "internalType": "uint256",
          "name": "projectId",
          "type": "uint256"
        },
        {
          "indexed": false,
          "internalType": "address",
          "name": "donator",
          "type": "address"
        },
        {
          "indexed": false,
          "internalType": "uint256",
          "name": "amount",
          "type": "uint256"
        }
      ],
      "name": "LogRefundFailure",
      "type": "event"
    },
    {
      "inputs": [],
      "name": "owner",
      "outputs": [
        {
          "internalType": "address payable",
          "name": "",
          "type": "address"
        }
      ],
      "stateMutability": "view",
      "type": "function",
      "constant": true
    },
    {
      "inputs": [
        {
          "internalType": "uint256",
          "name": "",
          "type": "uint256"
        }
      ],
      "name": "projects",
      "outputs": [
        {
          "internalType": "address payable",
          "name": "founder",
          "type": "address"
        },
        {
          "internalType": "string",
          "name": "title",
          "type": "string"
        },
        {
          "internalType": "string",
          "name": "description",
          "type": "string"
        },
        {
          "internalType": "uint256",
          "name": "endTime",
          "type": "uint256"
        },
        {
          "internalType": "uint256",
          "name": "amountFunded",
          "type": "uint256"
        },
        {
          "internalType": "uint256",
          "name": "amountAllocated",
          "type": "uint256"
        },
        {
          "internalType": "uint256",
          "name": "expenseCount",
          "type": "uint256"
        }
      ],
      "stateMutability": "view",
      "type": "function",
      "constant": true
    },
    {
      "inputs": [
        {
          "internalType": "string",
          "name": "_title",
          "type": "string"
        },
        {
          "internalType": "string",
          "name": "_description",
          "type": "string"
        },
        {
          "internalType": "uint256",
          "name": "_endTime",
          "type": "uint256"
        }
      ],
      "name": "createProject",
      "outputs": [
        {
          "internalType": "uint256",
          "name": "",
          "type": "uint256"
        }
      ],
      "stateMutability": "nonpayable",
      "type": "function"
    },
    {
      "inputs": [
        {
          "internalType": "uint256",
          "name": "projectId",
          "type": "uint256"
        }
      ],
      "name": "donate",
      "outputs": [],
      "stateMutability": "payable",
      "type": "function",
      "payable": true
    },
    {
      "inputs": [
        {
          "internalType": "uint256",
          "name": "projectId",
          "type": "uint256"
        }
      ],
      "name": "refund",
      "outputs": [],
      "stateMutability": "nonpayable",
      "type": "function"
    },
    {
      "inputs": [
        {
          "internalType": "uint256",
          "name": "projectId",
          "type": "uint256"
        },
        {
          "internalType": "uint256",
          "name": "allocation",
          "type": "uint256"
        },
        {
          "internalType": "string",
          "name": "description",
          "type": "string"
        }
      ],
      "name": "createExpense",
      "outputs": [
        {
          "internalType": "uint256",
          "name": "",
          "type": "uint256"
        }
      ],
      "stateMutability": "nonpayable",
      "type": "function"
    },
    {
      "inputs": [
        {
          "internalType": "uint256",
          "name": "projectId",
          "type": "uint256"
        },
        {
          "internalType": "uint256",
          "name": "expenseId",
          "type": "uint256"
        }
      ],
      "name": "getExpense",
      "outputs": [
        {
          "internalType": "string",
          "name": "",
          "type": "string"
        },
        {
          "internalType": "uint256",
          "name": "",
          "type": "uint256"
        },
        {
          "internalType": "uint256",
          "name": "",
          "type": "uint256"
        },
        {
          "internalType": "uint256",
          "name": "",
          "type": "uint256"
        }
      ],
      "stateMutability": "view",
      "type": "function",
      "constant": true
    },
    {
      "inputs": [
        {
          "internalType": "uint256",
          "name": "projectId",
          "type": "uint256"
        }
      ],
      "name": "getMyDonation",
      "outputs": [
        {
          "internalType": "uint256",
          "name": "",
          "type": "uint256"
        },
        {
          "internalType": "uint256",
          "name": "",
          "type": "uint256"
        }
      ],
      "stateMutability": "view",
      "type": "function",
      "constant": true
    },
    {
      "inputs": [
        {
          "internalType": "uint256",
          "name": "projectId",
          "type": "uint256"
        },
        {
          "internalType": "uint256",
          "name": "expenseId",
          "type": "uint256"
        }
      ],
      "name": "approveExpense",
      "outputs": [],
      "stateMutability": "nonpayable",
      "type": "function"
    }
  ],
  "bytecode": "0x6080604052336000806101000a81548173ffffffffffffffffffffffffffffffffffffffff021916908373ffffffffffffffffffffffffffffffffffffffff1602179055506119a9806100536000396000f3fe6080604052600436106100865760003560e01c80638da5cb5b116100595780638da5cb5b1461015d5780638ed56d8b14610188578063ecbce5ac146101c8578063f14faf6f14610205578063f80db32d1461022157610086565b8063107046bd1461008b57806323c55448146100ce578063278ecde11461010b57806381cf768c14610134575b600080fd5b34801561009757600080fd5b506100b260048036038101906100ad91906111ce565b61025f565b6040516100c597969594939291906112e4565b60405180910390f35b3480156100da57600080fd5b506100f560048036038101906100f09190611496565b6103d1565b6040516101029190611521565b60405180910390f35b34801561011757600080fd5b50610132600480360381019061012d91906111ce565b61049c565b005b34801561014057600080fd5b5061015b6004803603810190610156919061153c565b610724565b005b34801561016957600080fd5b50610172610b50565b60405161017f919061157c565b60405180910390f35b34801561019457600080fd5b506101af60048036038101906101aa919061153c565b610b74565b6040516101bf9493929190611597565b60405180910390f35b3480156101d457600080fd5b506101ef60048036038101906101ea91906115e3565b610cf9565b6040516101fc9190611521565b60405180910390f35b61021f600480360381019061021a91906111ce565b610e4f565b005b34801561022d57600080fd5b50610248600480360381019061024391906111ce565b610f6b565b604051610256929190611652565b60405180910390f35b60036020528060005260406000206000915090508060000160009054906101000a900473ffffffffffffffffffffffffffffffffffffffff16908060010180546102a8906116aa565b80601f01602080910402602001604051908101604052809291908181526020018280546102d4906116aa565b80156103215780601f106102f657610100808354040283529160200191610321565b820191906000526020600020905b81548152906001019060200180831161030457829003601f168201915b505050505090806002018054610336906116aa565b80601f0160208091040260200160405190810160405280929190818152602001828054610362906116aa565b80156103af5780601f10610384576101008083540402835291602001916103af565b820191906000526020600020905b81548152906001019060200180831161039257829003601f168201915b5050505050908060030154908060040154908060050154908060070154905087565b60004282116103df57600080fd5b60018060008282546103f1919061170b565b9250508190555060006003600060015481526020019081526020016000209050338160000160006101000a81548173ffffffffffffffffffffffffffffffffffffffff021916908373ffffffffffffffffffffffffffffffffffffffff1602179055508481600101908051906020019061046c9291906110e1565b50838160020190805190602001906104859291906110e1565b508281600301819055506001549150509392505050565b600181101580156104af57506001548111155b6104b857600080fd5b426003600083815260200190815260200160002060030154106104da57600080fd5b60006003600083815260200190815260200160002060060160003373ffffffffffffffffffffffffffffffffffffffff1673ffffffffffffffffffffffffffffffffffffffff168152602001908152602001600020600101541161053d57600080fd5b600060036000838152602001908152602001600020905060008160060160003373ffffffffffffffffffffffffffffffffffffffff1673ffffffffffffffffffffffffffffffffffffffff16815260200190815260200160002060010154905060008260060160003373ffffffffffffffffffffffffffffffffffffffff1673ffffffffffffffffffffffffffffffffffffffff16815260200190815260200160002090506000816001018190555060018160020160006101000a81548160ff02191690831515021790555060003373ffffffffffffffffffffffffffffffffffffffff168360405161062f90611792565b60006040518083038185875af1925050503d806000811461066c576040519150601f19603f3d011682016040523d82523d6000602084013e610671565b606091505b5050905080156106bb577fd712b46ccde5e095a18ecd18aed6bf9d83d9263601d1942365932b15f23cd7da8533856040516106ae939291906117c8565b60405180910390a161071d565b7fb3d46fede83b43afa5b259880f99cf559bacfe934a385b0aa79b118737312b558533856040516106ee939291906117c8565b60405180910390a182826001018190555060008260020160006101000a81548160ff0219169083151502179055505b5050505050565b6001821015801561073757506001548211155b61074057600080fd5b60006003600084815260200190815260200160002060060160003373ffffffffffffffffffffffffffffffffffffffff1673ffffffffffffffffffffffffffffffffffffffff16815260200190815260200160002060010154116107a357600080fd5b600181101580156107ca575060036000838152602001908152602001600020600701548111155b6107d357600080fd5b600060018111156107e7576107e66117ff565b5b60036000848152602001908152602001600020600801600083815260200190815260200160002060030160009054906101000a900460ff166001811115610831576108306117ff565b5b1461083b57600080fd5b60006003600084815260200190815260200160002090506000816008016000848152602001908152602001600020905060006108ce82600201548360010154610884919061182e565b8460060160003373ffffffffffffffffffffffffffffffffffffffff1673ffffffffffffffffffffffffffffffffffffffff168152602001908152602001600020600101546110c8565b9050808260020160008282546108e4919061170b565b92505081905550808360060160003373ffffffffffffffffffffffffffffffffffffffff1673ffffffffffffffffffffffffffffffffffffffff168152602001908152602001600020600101600082825461093f919061182e565b925050819055507f6dd42a5b0c3cec32dc181f41a27766cfcaad790546250d30922b585173782f5685853360405161097993929190611862565b60405180910390a1816001015482600201541415610b495760018260030160006101000a81548160ff021916908360018111156109b9576109b86117ff565b5b021790555081600101548360050160008282546109d6919061170b565b9250508190555060008360000160009054906101000a900473ffffffffffffffffffffffffffffffffffffffff1673ffffffffffffffffffffffffffffffffffffffff168360010154604051610a2b90611792565b60006040518083038185875af1925050503d8060008114610a68576040519150601f19603f3d011682016040523d82523d6000602084013e610a6d565b606091505b505090508015610abb577f230de2370eb78ca31e3791f47cf3fa6d25a5fd71ea29195f1784a0c6e4d792d386868560010154604051610aae93929190611899565b60405180910390a1610b47565b7ffdb81aeea22839302a4949704ff5d89991c529a6d19523c75d6e3339137a275486868560010154604051610af293929190611899565b60405180910390a160008360030160006101000a81548160ff02191690836001811115610b2257610b216117ff565b5b02179055508260010154846005016000828254610b3f919061182e565b925050819055505b505b5050505050565b60008054906101000a900473ffffffffffffffffffffffffffffffffffffffff1681565b6060600080600060018610158015610b8e57506001548611155b610b9757600080fd5b60018510158015610bbe575060036000878152602001908152602001600020600701548511155b610bc757600080fd5b60006003600088815260200190815260200160002060080160008781526020019081526020016000206001015411610bfe57600080fd5b6000600360008881526020019081526020016000206008016000878152602001908152602001600020905080600001816001015482600201548360030160009054906101000a900460ff166001811115610c5b57610c5a6117ff565b5b838054610c67906116aa565b80601f0160208091040260200160405190810160405280929190818152602001828054610c93906116aa565b8015610ce05780601f10610cb557610100808354040283529160200191610ce0565b820191906000526020600020905b815481529060010190602001808311610cc357829003601f168201915b5050505050935094509450945094505092959194509250565b60003373ffffffffffffffffffffffffffffffffffffffff166003600086815260200190815260200160002060000160009054906101000a900473ffffffffffffffffffffffffffffffffffffffff1673ffffffffffffffffffffffffffffffffffffffff1614610d6957600080fd5b60018410158015610d7c57506001548411155b610d8557600080fd5b60008311610d9257600080fd5b6000600360008681526020019081526020016000209050600060018260070154610dbc919061170b565b90506000826008016000838152602001908152602001600020905084816000019080519060200190610def9291906110e1565b5085816001018190555060008160030160006101000a81548160ff02191690836001811115610e2157610e206117ff565b5b02179055506001836007016000828254610e3b919061170b565b925050819055508193505050509392505050565b60003411610e5c57600080fd5b42600360008381526020019081526020016000206003015411610e7e57600080fd5b600060036000838152602001908152602001600020905034816004016000828254610ea9919061170b565b9250508190555060008160060160003373ffffffffffffffffffffffffffffffffffffffff1673ffffffffffffffffffffffffffffffffffffffff168152602001908152602001600020905034816000016000828254610f09919061170b565b9250508190555034816001016000828254610f24919061170b565b925050819055507fd794a90b7dc94481097155b3b6aa3ad453ee9530aed35db574dc5c4c6ce93a31333485604051610f5e939291906118d0565b60405180910390a1505050565b60008060018310158015610f8157506001548311155b610f8a57600080fd5b60006003600085815260200190815260200160002060060160003373ffffffffffffffffffffffffffffffffffffffff1673ffffffffffffffffffffffffffffffffffffffff1681526020019081526020016000206000015411611023576040517f08c379a000000000000000000000000000000000000000000000000000000000815260040161101a90611953565b60405180910390fd5b60006003600085815260200190815260200160002060060160003373ffffffffffffffffffffffffffffffffffffffff1673ffffffffffffffffffffffffffffffffffffffff16815260200190815260200160002060405180606001604052908160008201548152602001600182015481526020016002820160009054906101000a900460ff1615151515815250509050806000015181602001519250925050915091565b60008183106110d757816110d9565b825b905092915050565b8280546110ed906116aa565b90600052602060002090601f01602090048101928261110f5760008555611156565b82601f1061112857805160ff1916838001178555611156565b82800160010185558215611156579182015b8281111561115557825182559160200191906001019061113a565b5b5090506111639190611167565b5090565b5b80821115611180576000816000905550600101611168565b5090565b6000604051905090565b600080fd5b600080fd5b6000819050919050565b6111ab81611198565b81146111b657600080fd5b50565b6000813590506111c8816111a2565b92915050565b6000602082840312156111e4576111e361118e565b5b60006111f2848285016111b9565b91505092915050565b600073ffffffffffffffffffffffffffffffffffffffff82169050919050565b6000611226826111fb565b9050919050565b6112368161121b565b82525050565b600081519050919050565b600082825260208201905092915050565b60005b8381101561127657808201518184015260208101905061125b565b83811115611285576000848401525b50505050565b6000601f19601f8301169050919050565b60006112a78261123c565b6112b18185611247565b93506112c1818560208601611258565b6112ca8161128b565b840191505092915050565b6112de81611198565b82525050565b600060e0820190506112f9600083018a61122d565b818103602083015261130b818961129c565b9050818103604083015261131f818861129c565b905061132e60608301876112d5565b61133b60808301866112d5565b61134860a08301856112d5565b61135560c08301846112d5565b98975050505050505050565b600080fd5b600080fd5b7f4e487b7100000000000000000000000000000000000000000000000000000000600052604160045260246000fd5b6113a38261128b565b810181811067ffffffffffffffff821117156113c2576113c161136b565b5b80604052505050565b60006113d5611184565b90506113e1828261139a565b919050565b600067ffffffffffffffff8211156114015761140061136b565b5b61140a8261128b565b9050602081019050919050565b82818337600083830152505050565b6000611439611434846113e6565b6113cb565b90508281526020810184848401111561145557611454611366565b5b611460848285611417565b509392505050565b600082601f83011261147d5761147c611361565b5b813561148d848260208601611426565b91505092915050565b6000806000606084860312156114af576114ae61118e565b5b600084013567ffffffffffffffff8111156114cd576114cc611193565b5b6114d986828701611468565b935050602084013567ffffffffffffffff8111156114fa576114f9611193565b5b61150686828701611468565b9250506040611517868287016111b9565b9150509250925092565b600060208201905061153660008301846112d5565b92915050565b600080604083850312156115535761155261118e565b5b6000611561858286016111b9565b9250506020611572858286016111b9565b9150509250929050565b6000602082019050611591600083018461122d565b92915050565b600060808201905081810360008301526115b1818761129c565b90506115c060208301866112d5565b6115cd60408301856112d5565b6115da60608301846112d5565b95945050505050565b6000806000606084860312156115fc576115fb61118e565b5b600061160a868287016111b9565b935050602061161b868287016111b9565b925050604084013567ffffffffffffffff81111561163c5761163b611193565b5b61164886828701611468565b9150509250925092565b600060408201905061166760008301856112d5565b61167460208301846112d5565b9392505050565b7f4e487b7100000000000000000000000000000000000000000000000000000000600052602260045260246000fd5b600060028204905060018216806116c257607f821691505b602082108114156116d6576116d561167b565b5b50919050565b7f4e487b7100000000000000000000000000000000000000000000000000000000600052601160045260246000fd5b600061171682611198565b915061172183611198565b9250827fffffffffffffffffffffffffffffffffffffffffffffffffffffffffffffffff03821115611756576117556116dc565b5b828201905092915050565b600081905092915050565b50565b600061177c600083611761565b91506117878261176c565b600082019050919050565b600061179d8261176f565b9150819050919050565b60006117b2826111fb565b9050919050565b6117c2816117a7565b82525050565b60006060820190506117dd60008301866112d5565b6117ea60208301856117b9565b6117f760408301846112d5565b949350505050565b7f4e487b7100000000000000000000000000000000000000000000000000000000600052602160045260246000fd5b600061183982611198565b915061184483611198565b925082821015611857576118566116dc565b5b828203905092915050565b600060608201905061187760008301866112d5565b61188460208301856112d5565b61189160408301846117b9565b949350505050565b60006060820190506118ae60008301866112d5565b6118bb60208301856112d5565b6118c860408301846112d5565b949350505050565b60006060820190506118e560008301866117b9565b6118f260208301856112d5565b6118ff60408301846112d5565b949350505050565b7f796f75206d757374206265206f6e65206f662074686520646f6e61746f727300600082015250565b600061193d601f83611247565b915061194882611907565b602082019050919050565b6000602082019050818103600083015261196c81611930565b905091905056fea2646970667358221220973880efb3229bf67ef5f92fa2d7b857ed929b4d334385d8de79cc65deb3e86164736f6c63430008090033",
  "immutableReferences": {},
  "source": "// SPDX-License-Identifier: MIT\npragma solidity >=0.4.22 <0.9.0;\n\nimport \"@openzeppelin/contracts/utils/math/Math.sol\";\n\ncontract EthDonation {\n\n  // owner is the owner of the contract\n  address payable public owner;\n  uint projectCount;\n  // TODO: evaluate whether projectBalances is useful\n  mapping(uint => uint256) private projectBalances; // projectId to project balance\n  mapping(uint => Project) public projects; // projectId to project\n\n  enum ExpenseState {\n    Pending,\n    Approved\n  }\n\n  event LogDonationMade(address donatorAddress, uint256 amount, uint projectId);\n  event LogExpenseApproved(uint projectId, uint expenseId, address approver);\n  event LogExpenseAllocated(uint projectId, uint expenseId, uint256 allocation);\n  event LogExpenseAllocationFailure(uint projectId, uint expenseId, uint256 allocation);\n  event LogRefund(uint projectId, address donator, uint256 amount);\n  event LogRefundFailure(uint projectId, address donator, uint256 amount);\n\n  constructor() payable {\n    owner = payable(msg.sender);\n  }\n\n  struct Donation {\n    uint256 total;\n    uint256 available;\n    bool refunded;\n  }\n\n  // Project is the information of the project to be funded by donators \n  struct Project {\n    address payable founder;\n    string title;\n    string description;\n    uint endTime;\n    // TODO: check if it is useful\n    // the total amount funded, but it is temperorally stored in the contract balances\n    uint256 amountFunded;\n    // the amount that has been allocated to the founder - expenses approved\n    uint256 amountAllocated;\n    // mapping of each donator to the amount, if the amount is partially consumed by an expense,\n    // the amount is the left amount of that donator\n    mapping(address => Donation) donations;\n    uint expenseCount;\n    mapping(uint => Expense) expenses;\n  }\n\n  // Expense is the detail of a single expense item in a project\n  // \n  struct Expense {\n    // TODO: check whether expenseId is useful\n    // uint expenseId;\n    string description;\n    uint256 allocation;\n    uint256 approvedAmount;\n    ExpenseState state;\n  }\n\n  // createProject creates a project to be donated with project title, description and the project endTime\n  function createProject(string memory _title, string memory _description, uint _endTime) public returns(uint) {\n    require(_endTime > block.timestamp);\n    projectCount += 1;\n    Project storage proj = projects[projectCount];\n    proj.founder = payable(msg.sender);\n    proj.title= _title;\n    proj.description= _description;\n    proj.endTime= _endTime;\n    return projectCount;\n  }\n\n  // donate collects the amount of ETH from donator and transfer to the project founder's account\n  function donate(uint projectId) public payable {\n    require(msg.value > 0);\n    require(projects[projectId].endTime > block.timestamp);\n    \n    Project storage proj = projects[projectId];\n    proj.amountFunded += msg.value;\n    Donation storage donation = proj.donations[msg.sender];\n    donation.total += msg.value;\n    donation.available += msg.value;\n    emit LogDonationMade(msg.sender, msg.value, projectId);\n  }\n\n  // refund donations to the original donator if the project ends and there are donations left\n  function refund(uint projectId) public {\n    require(projectId >= 1 && projectId <= projectCount);\n    // project should be ended\n    require(projects[projectId].endTime < block.timestamp);\n    // msg.sender should be one of the donator and has available amount\n    require(projects[projectId].donations[msg.sender].available > 0);\n\n    Project storage proj = projects[projectId];\n    uint256 amount = proj.donations[msg.sender].available;\n    Donation storage dona = proj.donations[msg.sender];\n    dona.available = 0;\n    dona.refunded = true;\n    (bool success, ) = msg.sender.call{value: amount}(\"\");\n    if (success) {\n      emit LogRefund(projectId, msg.sender, amount);\n    } else {\n      emit LogRefundFailure(projectId, msg.sender, amount);\n      dona.available = amount;\n      dona.refunded = false;\n    }\n  }\n\n  // createExpense creates an expense to a project\n  function createExpense(uint projectId, uint256 allocation, string memory description) public returns(uint) {\n    require(projects[projectId].founder == msg.sender);\n    require(projectId >= 1 && projectId <= projectCount);\n    require(allocation > 0);\n\n    Project storage proj = projects[projectId];\n    uint expenseId = proj.expenseCount + 1;\n    Expense storage exps = proj.expenses[expenseId];\n    exps.description = description;\n    exps.allocation = allocation;\n    exps.state = ExpenseState.Pending;\n    proj.expenseCount += 1;\n    return expenseId;\n  }\n\n  function getExpense(uint projectId, uint expenseId) public view returns (string memory, uint256, uint256, uint) {\n    require(projectId >= 1 && projectId <= projectCount);\n    require(expenseId >= 1 && expenseId <= projects[projectId].expenseCount);\n    require(projects[projectId].expenses[expenseId].allocation > 0);\n\n    Expense storage exp = projects[projectId].expenses[expenseId];\n    return (exp.description, exp.allocation, exp.approvedAmount, uint(exp.state));\n  }\n\n  function getMyDonation(uint projectId) public view returns (uint256, uint256) {\n    require(projectId >= 1 && projectId <= projectCount);\n    require(projects[projectId].donations[msg.sender].total > 0, \"you must be one of the donators\");\n\n    Donation memory dona = projects[projectId].donations[msg.sender];\n    return (dona.total, dona.available);\n  }\n\n  // approveExpense approves an expense to a project\n  // when the total approved amount is greater than or equal to the allocation for the proposed expense\n  // the approved amount will be transferred to the project founder's address\n  function approveExpense(uint projectId, uint expenseId) public {\n    // projectId should be valid\n    require(projectId >= 1 && projectId <= projectCount);\n    // msg.sender should be one of the donator and has available amount\n    require(projects[projectId].donations[msg.sender].available > 0);\n    // expenseId should be valid\n    require(expenseId >= 1 && expenseId <= projects[projectId].expenseCount);\n    // expense should be in pending state\n    require(projects[projectId].expenses[expenseId].state == ExpenseState.Pending);\n\n    Project storage project = projects[projectId];\n    Expense storage expense = project.expenses[expenseId];\n    uint256 amountToApprove = Math.min(expense.allocation - expense.approvedAmount, project.donations[msg.sender].available);\n    expense.approvedAmount += amountToApprove;\n    project.donations[msg.sender].available -= amountToApprove;\n    emit LogExpenseApproved(projectId, expenseId, msg.sender);\n    if (expense.approvedAmount == expense.allocation) {  // expense allocation is filled, yay\n      expense.state = ExpenseState.Approved;\n      project.amountAllocated += expense.allocation;\n      (bool success, ) = project.founder.call{value:expense.allocation}(\"\");\n      if (success) {\n        emit LogExpenseAllocated(projectId, expenseId, expense.allocation);\n      } else {\n        emit LogExpenseAllocationFailure(projectId, expenseId, expense.allocation);\n        expense.state = ExpenseState.Pending;\n        project.amountAllocated -= expense.allocation;\n      }\n    }\n  }\n}\n",
  "sourcePath": "/Users/mie/Desktop/blockchain_bootcamp/project/blockchain-developer-bootcamp-final-project/contracts/EthDonation.sol",
  "compiler": {
    "name": "solc",
    "version": "0.8.9+commit.e5eed63a.Emscripten.clang"
  },
  "schemaVersion": "3.4.3",
  "updatedAt": "2021-11-26T23:23:28.033Z",
  "networkType": "ethereum",
  "devdoc": {
    "kind": "dev",
    "methods": {},
    "version": 1
  },
  "userdoc": {
    "kind": "user",
    "methods": {},
    "version": 1
  }
}