{
  "contractName": "EthDonation",
  "abi": [
    {
      "inputs": [],
      "stateMutability": "payable",
      "type": "constructor",
      "payable": true
    },
    {
      "anonymous": false,
      "inputs": [
        {
          "indexed": false,
          "internalType": "address",
          "name": "donatorAddress",
          "type": "address"
        },
        {
          "indexed": false,
          "internalType": "uint256",
          "name": "amount",
          "type": "uint256"
        },
        {
          "indexed": false,
          "internalType": "uint256",
          "name": "projectId",
          "type": "uint256"
        }
      ],
      "name": "LogDonationMade",
      "type": "event"
    },
    {
      "anonymous": false,
      "inputs": [
        {
          "indexed": false,
          "internalType": "uint256",
          "name": "projectId",
          "type": "uint256"
        },
        {
          "indexed": false,
          "internalType": "uint256",
          "name": "expenseId",
          "type": "uint256"
        },
        {
          "indexed": false,
          "internalType": "uint256",
          "name": "allocation",
          "type": "uint256"
        }
      ],
      "name": "LogExpenseAllocated",
      "type": "event"
    },
    {
      "anonymous": false,
      "inputs": [
        {
          "indexed": false,
          "internalType": "uint256",
          "name": "projectId",
          "type": "uint256"
        },
        {
          "indexed": false,
          "internalType": "uint256",
          "name": "expenseId",
          "type": "uint256"
        },
        {
          "indexed": false,
          "internalType": "uint256",
          "name": "allocation",
          "type": "uint256"
        }
      ],
      "name": "LogExpenseAllocationFailure",
      "type": "event"
    },
    {
      "anonymous": false,
      "inputs": [
        {
          "indexed": false,
          "internalType": "uint256",
          "name": "projectId",
          "type": "uint256"
        },
        {
          "indexed": false,
          "internalType": "uint256",
          "name": "expenseId",
          "type": "uint256"
        },
        {
          "indexed": false,
          "internalType": "address",
          "name": "approver",
          "type": "address"
        }
      ],
      "name": "LogExpenseApproved",
      "type": "event"
    },
    {
      "anonymous": false,
      "inputs": [
        {
          "indexed": false,
          "internalType": "uint256",
          "name": "projectId",
          "type": "uint256"
        },
        {
          "indexed": false,
          "internalType": "address",
          "name": "donator",
          "type": "address"
        },
        {
          "indexed": false,
          "internalType": "uint256",
          "name": "amount",
          "type": "uint256"
        }
      ],
      "name": "LogRefund",
      "type": "event"
    },
    {
      "anonymous": false,
      "inputs": [
        {
          "indexed": false,
          "internalType": "uint256",
          "name": "projectId",
          "type": "uint256"
        },
        {
          "indexed": false,
          "internalType": "address",
          "name": "donator",
          "type": "address"
        },
        {
          "indexed": false,
          "internalType": "uint256",
          "name": "amount",
          "type": "uint256"
        }
      ],
      "name": "LogRefundFailure",
      "type": "event"
    },
    {
      "inputs": [],
      "name": "owner",
      "outputs": [
        {
          "internalType": "address payable",
          "name": "",
          "type": "address"
        }
      ],
      "stateMutability": "view",
      "type": "function",
      "constant": true
    },
    {
      "inputs": [],
      "name": "projectCount",
      "outputs": [
        {
          "internalType": "uint256",
          "name": "",
          "type": "uint256"
        }
      ],
      "stateMutability": "view",
      "type": "function",
      "constant": true
    },
    {
      "inputs": [
        {
          "internalType": "uint256",
          "name": "",
          "type": "uint256"
        }
      ],
      "name": "projects",
      "outputs": [
        {
          "internalType": "address payable",
          "name": "founder",
          "type": "address"
        },
        {
          "internalType": "string",
          "name": "title",
          "type": "string"
        },
        {
          "internalType": "string",
          "name": "description",
          "type": "string"
        },
        {
          "internalType": "uint256",
          "name": "endTime",
          "type": "uint256"
        },
        {
          "internalType": "uint256",
          "name": "amountFunded",
          "type": "uint256"
        },
        {
          "internalType": "uint256",
          "name": "amountAllocated",
          "type": "uint256"
        },
        {
          "internalType": "uint256",
          "name": "expenseCount",
          "type": "uint256"
        }
      ],
      "stateMutability": "view",
      "type": "function",
      "constant": true
    },
    {
      "inputs": [
        {
          "internalType": "string",
          "name": "_title",
          "type": "string"
        },
        {
          "internalType": "string",
          "name": "_description",
          "type": "string"
        },
        {
          "internalType": "uint256",
          "name": "_endTime",
          "type": "uint256"
        }
      ],
      "name": "createProject",
      "outputs": [
        {
          "internalType": "uint256",
          "name": "",
          "type": "uint256"
        }
      ],
      "stateMutability": "nonpayable",
      "type": "function"
    },
    {
      "inputs": [
        {
          "internalType": "uint256",
          "name": "projectId",
          "type": "uint256"
        }
      ],
      "name": "donate",
      "outputs": [],
      "stateMutability": "payable",
      "type": "function",
      "payable": true
    },
    {
      "inputs": [
        {
          "internalType": "uint256",
          "name": "projectId",
          "type": "uint256"
        }
      ],
      "name": "refund",
      "outputs": [],
      "stateMutability": "nonpayable",
      "type": "function"
    },
    {
      "inputs": [
        {
          "internalType": "uint256",
          "name": "projectId",
          "type": "uint256"
        },
        {
          "internalType": "uint256",
          "name": "allocation",
          "type": "uint256"
        },
        {
          "internalType": "string",
          "name": "description",
          "type": "string"
        }
      ],
      "name": "createExpense",
      "outputs": [
        {
          "internalType": "uint256",
          "name": "",
          "type": "uint256"
        }
      ],
      "stateMutability": "nonpayable",
      "type": "function"
    },
    {
      "inputs": [
        {
          "internalType": "uint256",
          "name": "projectId",
          "type": "uint256"
        },
        {
          "internalType": "uint256",
          "name": "expenseId",
          "type": "uint256"
        }
      ],
      "name": "getExpense",
      "outputs": [
        {
          "internalType": "string",
          "name": "",
          "type": "string"
        },
        {
          "internalType": "uint256",
          "name": "",
          "type": "uint256"
        },
        {
          "internalType": "uint256",
          "name": "",
          "type": "uint256"
        },
        {
          "internalType": "uint256",
          "name": "",
          "type": "uint256"
        }
      ],
      "stateMutability": "view",
      "type": "function",
      "constant": true
    },
    {
      "inputs": [
        {
          "internalType": "uint256",
          "name": "projectId",
          "type": "uint256"
        }
      ],
      "name": "getMyDonation",
      "outputs": [
        {
          "internalType": "uint256",
          "name": "",
          "type": "uint256"
        },
        {
          "internalType": "uint256",
          "name": "",
          "type": "uint256"
        }
      ],
      "stateMutability": "view",
      "type": "function",
      "constant": true
    },
    {
      "inputs": [
        {
          "internalType": "uint256",
          "name": "projectId",
          "type": "uint256"
        },
        {
          "internalType": "uint256",
          "name": "expenseId",
          "type": "uint256"
        }
      ],
      "name": "approveExpense",
      "outputs": [],
      "stateMutability": "nonpayable",
      "type": "function"
    }
  ],
  "bytecode": "0x6080604052336000806101000a81548173ffffffffffffffffffffffffffffffffffffffff021916908373ffffffffffffffffffffffffffffffffffffffff1602179055506119e5806100536000396000f3fe6080604052600436106100915760003560e01c80638da5cb5b116100595780638da5cb5b146101935780638ed56d8b146101be578063ecbce5ac146101fe578063f14faf6f1461023b578063f80db32d1461025757610091565b8063107046bd1461009657806323c55448146100d9578063278ecde11461011657806336fbad261461013f57806381cf768c1461016a575b600080fd5b3480156100a257600080fd5b506100bd60048036038101906100b8919061120a565b610295565b6040516100d09796959493929190611320565b60405180910390f35b3480156100e557600080fd5b5061010060048036038101906100fb91906114d2565b610407565b60405161010d919061155d565b60405180910390f35b34801561012257600080fd5b5061013d6004803603810190610138919061120a565b6104d2565b005b34801561014b57600080fd5b5061015461075a565b604051610161919061155d565b60405180910390f35b34801561017657600080fd5b50610191600480360381019061018c9190611578565b610760565b005b34801561019f57600080fd5b506101a8610b8c565b6040516101b591906115b8565b60405180910390f35b3480156101ca57600080fd5b506101e560048036038101906101e09190611578565b610bb0565b6040516101f594939291906115d3565b60405180910390f35b34801561020a57600080fd5b506102256004803603810190610220919061161f565b610d35565b604051610232919061155d565b60405180910390f35b6102556004803603810190610250919061120a565b610e8b565b005b34801561026357600080fd5b5061027e6004803603810190610279919061120a565b610fa7565b60405161028c92919061168e565b60405180910390f35b60036020528060005260406000206000915090508060000160009054906101000a900473ffffffffffffffffffffffffffffffffffffffff16908060010180546102de906116e6565b80601f016020809104026020016040519081016040528092919081815260200182805461030a906116e6565b80156103575780601f1061032c57610100808354040283529160200191610357565b820191906000526020600020905b81548152906001019060200180831161033a57829003601f168201915b50505050509080600201805461036c906116e6565b80601f0160208091040260200160405190810160405280929190818152602001828054610398906116e6565b80156103e55780601f106103ba576101008083540402835291602001916103e5565b820191906000526020600020905b8154815290600101906020018083116103c857829003601f168201915b5050505050908060030154908060040154908060050154908060070154905087565b600042821161041557600080fd5b60018060008282546104279190611747565b9250508190555060006003600060015481526020019081526020016000209050338160000160006101000a81548173ffffffffffffffffffffffffffffffffffffffff021916908373ffffffffffffffffffffffffffffffffffffffff160217905550848160010190805190602001906104a292919061111d565b50838160020190805190602001906104bb92919061111d565b508281600301819055506001549150509392505050565b600181101580156104e557506001548111155b6104ee57600080fd5b4260036000838152602001908152602001600020600301541061051057600080fd5b60006003600083815260200190815260200160002060060160003373ffffffffffffffffffffffffffffffffffffffff1673ffffffffffffffffffffffffffffffffffffffff168152602001908152602001600020600101541161057357600080fd5b600060036000838152602001908152602001600020905060008160060160003373ffffffffffffffffffffffffffffffffffffffff1673ffffffffffffffffffffffffffffffffffffffff16815260200190815260200160002060010154905060008260060160003373ffffffffffffffffffffffffffffffffffffffff1673ffffffffffffffffffffffffffffffffffffffff16815260200190815260200160002090506000816001018190555060018160020160006101000a81548160ff02191690831515021790555060003373ffffffffffffffffffffffffffffffffffffffff1683604051610665906117ce565b60006040518083038185875af1925050503d80600081146106a2576040519150601f19603f3d011682016040523d82523d6000602084013e6106a7565b606091505b5050905080156106f1577fd712b46ccde5e095a18ecd18aed6bf9d83d9263601d1942365932b15f23cd7da8533856040516106e493929190611804565b60405180910390a1610753565b7fb3d46fede83b43afa5b259880f99cf559bacfe934a385b0aa79b118737312b5585338560405161072493929190611804565b60405180910390a182826001018190555060008260020160006101000a81548160ff0219169083151502179055505b5050505050565b60015481565b6001821015801561077357506001548211155b61077c57600080fd5b60006003600084815260200190815260200160002060060160003373ffffffffffffffffffffffffffffffffffffffff1673ffffffffffffffffffffffffffffffffffffffff16815260200190815260200160002060010154116107df57600080fd5b60018110158015610806575060036000838152602001908152602001600020600701548111155b61080f57600080fd5b600060018111156108235761082261183b565b5b60036000848152602001908152602001600020600801600083815260200190815260200160002060030160009054906101000a900460ff16600181111561086d5761086c61183b565b5b1461087757600080fd5b600060036000848152602001908152602001600020905060008160080160008481526020019081526020016000209050600061090a826002015483600101546108c0919061186a565b8460060160003373ffffffffffffffffffffffffffffffffffffffff1673ffffffffffffffffffffffffffffffffffffffff16815260200190815260200160002060010154611104565b9050808260020160008282546109209190611747565b92505081905550808360060160003373ffffffffffffffffffffffffffffffffffffffff1673ffffffffffffffffffffffffffffffffffffffff168152602001908152602001600020600101600082825461097b919061186a565b925050819055507f6dd42a5b0c3cec32dc181f41a27766cfcaad790546250d30922b585173782f568585336040516109b59392919061189e565b60405180910390a1816001015482600201541415610b855760018260030160006101000a81548160ff021916908360018111156109f5576109f461183b565b5b02179055508160010154836005016000828254610a129190611747565b9250508190555060008360000160009054906101000a900473ffffffffffffffffffffffffffffffffffffffff1673ffffffffffffffffffffffffffffffffffffffff168360010154604051610a67906117ce565b60006040518083038185875af1925050503d8060008114610aa4576040519150601f19603f3d011682016040523d82523d6000602084013e610aa9565b606091505b505090508015610af7577f230de2370eb78ca31e3791f47cf3fa6d25a5fd71ea29195f1784a0c6e4d792d386868560010154604051610aea939291906118d5565b60405180910390a1610b83565b7ffdb81aeea22839302a4949704ff5d89991c529a6d19523c75d6e3339137a275486868560010154604051610b2e939291906118d5565b60405180910390a160008360030160006101000a81548160ff02191690836001811115610b5e57610b5d61183b565b5b02179055508260010154846005016000828254610b7b919061186a565b925050819055505b505b5050505050565b60008054906101000a900473ffffffffffffffffffffffffffffffffffffffff1681565b6060600080600060018610158015610bca57506001548611155b610bd357600080fd5b60018510158015610bfa575060036000878152602001908152602001600020600701548511155b610c0357600080fd5b60006003600088815260200190815260200160002060080160008781526020019081526020016000206001015411610c3a57600080fd5b6000600360008881526020019081526020016000206008016000878152602001908152602001600020905080600001816001015482600201548360030160009054906101000a900460ff166001811115610c9757610c9661183b565b5b838054610ca3906116e6565b80601f0160208091040260200160405190810160405280929190818152602001828054610ccf906116e6565b8015610d1c5780601f10610cf157610100808354040283529160200191610d1c565b820191906000526020600020905b815481529060010190602001808311610cff57829003601f168201915b5050505050935094509450945094505092959194509250565b60003373ffffffffffffffffffffffffffffffffffffffff166003600086815260200190815260200160002060000160009054906101000a900473ffffffffffffffffffffffffffffffffffffffff1673ffffffffffffffffffffffffffffffffffffffff1614610da557600080fd5b60018410158015610db857506001548411155b610dc157600080fd5b60008311610dce57600080fd5b6000600360008681526020019081526020016000209050600060018260070154610df89190611747565b90506000826008016000838152602001908152602001600020905084816000019080519060200190610e2b92919061111d565b5085816001018190555060008160030160006101000a81548160ff02191690836001811115610e5d57610e5c61183b565b5b02179055506001836007016000828254610e779190611747565b925050819055508193505050509392505050565b60003411610e9857600080fd5b42600360008381526020019081526020016000206003015411610eba57600080fd5b600060036000838152602001908152602001600020905034816004016000828254610ee59190611747565b9250508190555060008160060160003373ffffffffffffffffffffffffffffffffffffffff1673ffffffffffffffffffffffffffffffffffffffff168152602001908152602001600020905034816000016000828254610f459190611747565b9250508190555034816001016000828254610f609190611747565b925050819055507fd794a90b7dc94481097155b3b6aa3ad453ee9530aed35db574dc5c4c6ce93a31333485604051610f9a9392919061190c565b60405180910390a1505050565b60008060018310158015610fbd57506001548311155b610fc657600080fd5b60006003600085815260200190815260200160002060060160003373ffffffffffffffffffffffffffffffffffffffff1673ffffffffffffffffffffffffffffffffffffffff168152602001908152602001600020600001541161105f576040517f08c379a00000000000000000000000000000000000000000000000000000000081526004016110569061198f565b60405180910390fd5b60006003600085815260200190815260200160002060060160003373ffffffffffffffffffffffffffffffffffffffff1673ffffffffffffffffffffffffffffffffffffffff16815260200190815260200160002060405180606001604052908160008201548152602001600182015481526020016002820160009054906101000a900460ff1615151515815250509050806000015181602001519250925050915091565b60008183106111135781611115565b825b905092915050565b828054611129906116e6565b90600052602060002090601f01602090048101928261114b5760008555611192565b82601f1061116457805160ff1916838001178555611192565b82800160010185558215611192579182015b82811115611191578251825591602001919060010190611176565b5b50905061119f91906111a3565b5090565b5b808211156111bc5760008160009055506001016111a4565b5090565b6000604051905090565b600080fd5b600080fd5b6000819050919050565b6111e7816111d4565b81146111f257600080fd5b50565b600081359050611204816111de565b92915050565b6000602082840312156112205761121f6111ca565b5b600061122e848285016111f5565b91505092915050565b600073ffffffffffffffffffffffffffffffffffffffff82169050919050565b600061126282611237565b9050919050565b61127281611257565b82525050565b600081519050919050565b600082825260208201905092915050565b60005b838110156112b2578082015181840152602081019050611297565b838111156112c1576000848401525b50505050565b6000601f19601f8301169050919050565b60006112e382611278565b6112ed8185611283565b93506112fd818560208601611294565b611306816112c7565b840191505092915050565b61131a816111d4565b82525050565b600060e082019050611335600083018a611269565b818103602083015261134781896112d8565b9050818103604083015261135b81886112d8565b905061136a6060830187611311565b6113776080830186611311565b61138460a0830185611311565b61139160c0830184611311565b98975050505050505050565b600080fd5b600080fd5b7f4e487b7100000000000000000000000000000000000000000000000000000000600052604160045260246000fd5b6113df826112c7565b810181811067ffffffffffffffff821117156113fe576113fd6113a7565b5b80604052505050565b60006114116111c0565b905061141d82826113d6565b919050565b600067ffffffffffffffff82111561143d5761143c6113a7565b5b611446826112c7565b9050602081019050919050565b82818337600083830152505050565b600061147561147084611422565b611407565b905082815260208101848484011115611491576114906113a2565b5b61149c848285611453565b509392505050565b600082601f8301126114b9576114b861139d565b5b81356114c9848260208601611462565b91505092915050565b6000806000606084860312156114eb576114ea6111ca565b5b600084013567ffffffffffffffff811115611509576115086111cf565b5b611515868287016114a4565b935050602084013567ffffffffffffffff811115611536576115356111cf565b5b611542868287016114a4565b9250506040611553868287016111f5565b9150509250925092565b60006020820190506115726000830184611311565b92915050565b6000806040838503121561158f5761158e6111ca565b5b600061159d858286016111f5565b92505060206115ae858286016111f5565b9150509250929050565b60006020820190506115cd6000830184611269565b92915050565b600060808201905081810360008301526115ed81876112d8565b90506115fc6020830186611311565b6116096040830185611311565b6116166060830184611311565b95945050505050565b600080600060608486031215611638576116376111ca565b5b6000611646868287016111f5565b9350506020611657868287016111f5565b925050604084013567ffffffffffffffff811115611678576116776111cf565b5b611684868287016114a4565b9150509250925092565b60006040820190506116a36000830185611311565b6116b06020830184611311565b9392505050565b7f4e487b7100000000000000000000000000000000000000000000000000000000600052602260045260246000fd5b600060028204905060018216806116fe57607f821691505b60208210811415611712576117116116b7565b5b50919050565b7f4e487b7100000000000000000000000000000000000000000000000000000000600052601160045260246000fd5b6000611752826111d4565b915061175d836111d4565b9250827fffffffffffffffffffffffffffffffffffffffffffffffffffffffffffffffff0382111561179257611791611718565b5b828201905092915050565b600081905092915050565b50565b60006117b860008361179d565b91506117c3826117a8565b600082019050919050565b60006117d9826117ab565b9150819050919050565b60006117ee82611237565b9050919050565b6117fe816117e3565b82525050565b60006060820190506118196000830186611311565b61182660208301856117f5565b6118336040830184611311565b949350505050565b7f4e487b7100000000000000000000000000000000000000000000000000000000600052602160045260246000fd5b6000611875826111d4565b9150611880836111d4565b92508282101561189357611892611718565b5b828203905092915050565b60006060820190506118b36000830186611311565b6118c06020830185611311565b6118cd60408301846117f5565b949350505050565b60006060820190506118ea6000830186611311565b6118f76020830185611311565b6119046040830184611311565b949350505050565b600060608201905061192160008301866117f5565b61192e6020830185611311565b61193b6040830184611311565b949350505050565b7f796f75206d757374206265206f6e65206f662074686520646f6e61746f727300600082015250565b6000611979601f83611283565b915061198482611943565b602082019050919050565b600060208201905081810360008301526119a88161196c565b905091905056fea2646970667358221220c863c917f470117be431ddfbbc93e76427abbae443c0017d865a8df053a6491664736f6c63430008090033",
  "immutableReferences": {},
  "source": "// SPDX-License-Identifier: MIT\npragma solidity >=0.4.22 <0.9.0;\n\nimport \"@openzeppelin/contracts/utils/math/Math.sol\";\n\ncontract EthDonation {\n\n  // owner is the owner of the contract\n  address payable public owner;\n  uint public projectCount;\n  // TODO: evaluate whether projectBalances is useful\n  mapping(uint => uint256) private projectBalances; // projectId to project balance\n  mapping(uint => Project) public projects; // projectId to project\n\n  enum ExpenseState {\n    Pending,\n    Approved\n  }\n\n  event LogDonationMade(address donatorAddress, uint256 amount, uint projectId);\n  event LogExpenseApproved(uint projectId, uint expenseId, address approver);\n  event LogExpenseAllocated(uint projectId, uint expenseId, uint256 allocation);\n  event LogExpenseAllocationFailure(uint projectId, uint expenseId, uint256 allocation);\n  event LogRefund(uint projectId, address donator, uint256 amount);\n  event LogRefundFailure(uint projectId, address donator, uint256 amount);\n\n  constructor() payable {\n    owner = payable(msg.sender);\n  }\n\n  struct Donation {\n    uint256 total;\n    uint256 available;\n    bool refunded;\n  }\n\n  // Project is the information of the project to be funded by donators \n  struct Project {\n    address payable founder;\n    string title;\n    string description;\n    uint endTime;\n    // TODO: check if it is useful\n    // the total amount funded, but it is temperorally stored in the contract balances\n    uint256 amountFunded;\n    // the amount that has been allocated to the founder - expenses approved\n    uint256 amountAllocated;\n    // mapping of each donator to the amount, if the amount is partially consumed by an expense,\n    // the amount is the left amount of that donator\n    mapping(address => Donation) donations;\n    uint expenseCount;\n    mapping(uint => Expense) expenses;\n  }\n\n  // Expense is the detail of a single expense item in a project\n  // \n  struct Expense {\n    // TODO: check whether expenseId is useful\n    // uint expenseId;\n    string description;\n    uint256 allocation;\n    uint256 approvedAmount;\n    ExpenseState state;\n  }\n\n  // createProject creates a project to be donated with project title, description and the project endTime\n  function createProject(string memory _title, string memory _description, uint _endTime) public returns(uint) {\n    require(_endTime > block.timestamp);\n    projectCount += 1;\n    Project storage proj = projects[projectCount];\n    proj.founder = payable(msg.sender);\n    proj.title= _title;\n    proj.description= _description;\n    proj.endTime= _endTime;\n    return projectCount;\n  }\n\n  // donate collects the amount of ETH from donator and transfer to the project founder's account\n  function donate(uint projectId) public payable {\n    require(msg.value > 0);\n    require(projects[projectId].endTime > block.timestamp);\n    \n    Project storage proj = projects[projectId];\n    proj.amountFunded += msg.value;\n    Donation storage donation = proj.donations[msg.sender];\n    donation.total += msg.value;\n    donation.available += msg.value;\n    emit LogDonationMade(msg.sender, msg.value, projectId);\n  }\n\n  // refund donations to the original donator if the project ends and there are donations left\n  function refund(uint projectId) public {\n    require(projectId >= 1 && projectId <= projectCount);\n    // project should be ended\n    require(projects[projectId].endTime < block.timestamp);\n    // msg.sender should be one of the donator and has available amount\n    require(projects[projectId].donations[msg.sender].available > 0);\n\n    Project storage proj = projects[projectId];\n    uint256 amount = proj.donations[msg.sender].available;\n    Donation storage dona = proj.donations[msg.sender];\n    dona.available = 0;\n    dona.refunded = true;\n    (bool success, ) = msg.sender.call{value: amount}(\"\");\n    if (success) {\n      emit LogRefund(projectId, msg.sender, amount);\n    } else {\n      emit LogRefundFailure(projectId, msg.sender, amount);\n      dona.available = amount;\n      dona.refunded = false;\n    }\n  }\n\n  // createExpense creates an expense to a project\n  function createExpense(uint projectId, uint256 allocation, string memory description) public returns(uint) {\n    require(projects[projectId].founder == msg.sender);\n    require(projectId >= 1 && projectId <= projectCount);\n    require(allocation > 0);\n\n    Project storage proj = projects[projectId];\n    uint expenseId = proj.expenseCount + 1;\n    Expense storage exps = proj.expenses[expenseId];\n    exps.description = description;\n    exps.allocation = allocation;\n    exps.state = ExpenseState.Pending;\n    proj.expenseCount += 1;\n    return expenseId;\n  }\n\n  function getExpense(uint projectId, uint expenseId) public view returns (string memory, uint256, uint256, uint) {\n    require(projectId >= 1 && projectId <= projectCount);\n    require(expenseId >= 1 && expenseId <= projects[projectId].expenseCount);\n    require(projects[projectId].expenses[expenseId].allocation > 0);\n\n    Expense storage exp = projects[projectId].expenses[expenseId];\n    return (exp.description, exp.allocation, exp.approvedAmount, uint(exp.state));\n  }\n\n  function getMyDonation(uint projectId) public view returns (uint256, uint256) {\n    require(projectId >= 1 && projectId <= projectCount);\n    require(projects[projectId].donations[msg.sender].total > 0, \"you must be one of the donators\");\n\n    Donation memory dona = projects[projectId].donations[msg.sender];\n    return (dona.total, dona.available);\n  }\n\n  // approveExpense approves an expense to a project\n  // when the total approved amount is greater than or equal to the allocation for the proposed expense\n  // the approved amount will be transferred to the project founder's address\n  function approveExpense(uint projectId, uint expenseId) public {\n    // projectId should be valid\n    require(projectId >= 1 && projectId <= projectCount);\n    // msg.sender should be one of the donator and has available amount\n    require(projects[projectId].donations[msg.sender].available > 0);\n    // expenseId should be valid\n    require(expenseId >= 1 && expenseId <= projects[projectId].expenseCount);\n    // expense should be in pending state\n    require(projects[projectId].expenses[expenseId].state == ExpenseState.Pending);\n\n    Project storage project = projects[projectId];\n    Expense storage expense = project.expenses[expenseId];\n    uint256 amountToApprove = Math.min(expense.allocation - expense.approvedAmount, project.donations[msg.sender].available);\n    expense.approvedAmount += amountToApprove;\n    project.donations[msg.sender].available -= amountToApprove;\n    emit LogExpenseApproved(projectId, expenseId, msg.sender);\n    if (expense.approvedAmount == expense.allocation) {  // expense allocation is filled, yay\n      expense.state = ExpenseState.Approved;\n      project.amountAllocated += expense.allocation;\n      (bool success, ) = project.founder.call{value:expense.allocation}(\"\");\n      if (success) {\n        emit LogExpenseAllocated(projectId, expenseId, expense.allocation);\n      } else {\n        emit LogExpenseAllocationFailure(projectId, expenseId, expense.allocation);\n        expense.state = ExpenseState.Pending;\n        project.amountAllocated -= expense.allocation;\n      }\n    }\n  }\n}\n",
  "sourcePath": "/Users/mie/Desktop/blockchain_bootcamp/project/blockchain-developer-bootcamp-final-project/contracts/EthDonation.sol",
  "compiler": {
    "name": "solc",
    "version": "0.8.9+commit.e5eed63a.Emscripten.clang"
  },
  "schemaVersion": "3.4.3",
  "updatedAt": "2021-11-27T07:44:33.769Z",
  "networkType": "ethereum",
  "devdoc": {
    "kind": "dev",
    "methods": {},
    "version": 1
  },
  "userdoc": {
    "kind": "user",
    "methods": {},
    "version": 1
  }
}